{
    "contractName": "LoanMarketplace",
    "abi": [
        {
            "inputs": [
                {
                    "internalType": "address",
                    "name": "_owner",
                    "type": "address"
                },
                {
                    "internalType": "uint256",
                    "name": "_listingFee",
                    "type": "uint256"
                }
            ],
            "stateMutability": "nonpayable",
            "type": "constructor"
        },
        {
            "anonymous": false,
            "inputs": [
                {
                    "indexed": false,
                    "internalType": "address",
                    "name": "blacklistedAddr",
                    "type": "address"
                },
                {
                    "indexed": false,
                    "internalType": "uint256",
                    "name": "defaultedLoan",
                    "type": "uint256"
                }
            ],
            "name": "Blacklisted",
            "type": "event"
        },
        {
            "anonymous": false,
            "inputs": [
                {
                    "indexed": false,
                    "internalType": "uint256",
                    "name": "id",
                    "type": "uint256"
                },
                {
                    "indexed": false,
                    "internalType": "uint256",
                    "name": "totalDebt",
                    "type": "uint256"
                }
            ],
            "name": "DebtPaid",
            "type": "event"
        },
        {
            "anonymous": false,
            "inputs": [
                {
                    "indexed": false,
                    "internalType": "uint256",
                    "name": "id",
                    "type": "uint256"
                },
                {
                    "indexed": false,
                    "internalType": "address",
                    "name": "lender",
                    "type": "address"
                }
            ],
            "name": "Lend",
            "type": "event"
        },
        {
            "anonymous": false,
            "inputs": [
                {
                    "indexed": false,
                    "internalType": "uint256",
                    "name": "loanId",
                    "type": "uint256"
                },
                {
                    "indexed": false,
                    "internalType": "address",
                    "name": "buyer",
                    "type": "address"
                },
                {
                    "indexed": false,
                    "internalType": "uint256",
                    "name": "percentage",
                    "type": "uint256"
                },
                {
                    "indexed": false,
                    "internalType": "uint256",
                    "name": "price",
                    "type": "uint256"
                }
            ],
            "name": "LoanFractionSold",
            "type": "event"
        },
        {
            "anonymous": false,
            "inputs": [
                {
                    "indexed": false,
                    "internalType": "uint256",
                    "name": "loanAmount",
                    "type": "uint256"
                },
                {
                    "indexed": false,
                    "internalType": "uint256",
                    "name": "interestRate",
                    "type": "uint256"
                },
                {
                    "indexed": false,
                    "internalType": "uint256",
                    "name": "loanDuration",
                    "type": "uint256"
                },
                {
                    "indexed": false,
                    "internalType": "address",
                    "name": "borrower",
                    "type": "address"
                }
            ],
            "name": "LoanProposalCreated",
            "type": "event"
        },
        {
            "anonymous": false,
            "inputs": [
                {
                    "indexed": false,
                    "internalType": "uint256",
                    "name": "loanId",
                    "type": "uint256"
                },
                {
                    "indexed": false,
                    "internalType": "uint256",
                    "name": "percentage",
                    "type": "uint256"
                },
                {
                    "indexed": false,
                    "internalType": "uint256",
                    "name": "price",
                    "type": "uint256"
                }
            ],
            "name": "NewLoanFraction",
            "type": "event"
        },
        {
            "anonymous": false,
            "inputs": [
                {
                    "indexed": false,
                    "internalType": "uint256",
                    "name": "id",
                    "type": "uint256"
                }
            ],
            "name": "ProposalDelisted",
            "type": "event"
        },
        {
            "inputs": [
                {
                    "internalType": "address",
                    "name": "_toBlacklist",
                    "type": "address"
                },
                {
                    "internalType": "uint256",
                    "name": "_loanId",
                    "type": "uint256"
                }
            ],
            "name": "blacklistAddr",
            "outputs": [],
            "stateMutability": "nonpayable",
            "type": "function"
        },
        {
            "inputs": [
                {
                    "internalType": "address",
                    "name": "_seller",
                    "type": "address"
                },
                {
                    "internalType": "uint256",
                    "name": "_fractSaleId",
                    "type": "uint256"
                },
                {
                    "internalType": "uint256",
                    "name": "_loanId",
                    "type": "uint256"
                }
            ],
            "name": "buyLoanFraction",
            "outputs": [],
            "stateMutability": "payable",
            "type": "function"
        },
        {
            "inputs": [
                {
                    "internalType": "uint256",
                    "name": "_loanId",
                    "type": "uint256"
                },
                {
                    "internalType": "uint256",
                    "name": "_fractSaleId",
                    "type": "uint256"
                },
                {
                    "internalType": "address",
                    "name": "_seller",
                    "type": "address"
                }
            ],
            "name": "deleteFractSale",
            "outputs": [],
            "stateMutability": "nonpayable",
            "type": "function"
        },
        {
            "inputs": [
                {
                    "internalType": "uint256",
                    "name": "_proposalId",
                    "type": "uint256"
                }
            ],
            "name": "delistProposal",
            "outputs": [],
            "stateMutability": "nonpayable",
            "type": "function"
        },
        {
            "inputs": [],
            "name": "getMarketItemIds",
            "outputs": [
                {
                    "internalType": "uint256[]",
                    "name": "",
                    "type": "uint256[]"
                }
            ],
            "stateMutability": "view",
            "type": "function"
        },
        {
            "inputs": [
                {
                    "internalType": "uint256",
                    "name": "_itemId",
                    "type": "uint256"
                }
            ],
            "name": "getMarketplaceItems",
            "outputs": [
                {
                    "internalType": "uint256",
                    "name": "",
                    "type": "uint256"
                },
                {
                    "internalType": "uint256",
                    "name": "",
                    "type": "uint256"
                },
                {
                    "internalType": "uint256",
                    "name": "",
                    "type": "uint256"
                },
                {
                    "internalType": "uint256",
                    "name": "",
                    "type": "uint256"
                },
                {
                    "internalType": "uint256",
                    "name": "",
                    "type": "uint256"
                },
                {
                    "internalType": "uint256",
                    "name": "",
                    "type": "uint256"
                },
                {
                    "internalType": "address",
                    "name": "",
                    "type": "address"
                },
                {
                    "internalType": "address[]",
                    "name": "",
                    "type": "address[]"
                },
                {
                    "internalType": "uint256[]",
                    "name": "",
                    "type": "uint256[]"
                },
                {
                    "internalType": "uint256[]",
                    "name": "",
                    "type": "uint256[]"
                },
                {
                    "components": [
                        {
                            "internalType": "uint256",
                            "name": "idx",
                            "type": "uint256"
                        },
                        {
                            "internalType": "uint256",
                            "name": "price",
                            "type": "uint256"
                        },
                        {
                            "internalType": "uint256",
                            "name": "percentage",
                            "type": "uint256"
                        },
                        {
                            "internalType": "address",
                            "name": "seller",
                            "type": "address"
                        }
                    ],
                    "internalType": "struct LoanFactory.FractSale[]",
                    "name": "",
                    "type": "tuple[]"
                }
            ],
            "stateMutability": "view",
            "type": "function"
        },
        {
            "inputs": [
                {
                    "internalType": "uint256",
                    "name": "_loanId",
                    "type": "uint256"
                }
            ],
            "name": "getTotalDebt",
            "outputs": [
                {
                    "internalType": "uint256",
                    "name": "",
                    "type": "uint256"
                }
            ],
            "stateMutability": "view",
            "type": "function"
        },
        {
            "inputs": [
                {
                    "internalType": "address",
                    "name": "",
                    "type": "address"
                }
            ],
            "name": "isBlacklisted",
            "outputs": [
                {
                    "internalType": "bool",
                    "name": "",
                    "type": "bool"
                }
            ],
            "stateMutability": "view",
            "type": "function"
        },
        {
            "inputs": [
                {
                    "internalType": "uint256",
                    "name": "",
                    "type": "uint256"
                }
            ],
            "name": "itemIdToItem",
            "outputs": [
                {
                    "internalType": "uint256",
                    "name": "idx",
                    "type": "uint256"
                },
                {
                    "internalType": "uint256",
                    "name": "id",
                    "type": "uint256"
                },
                {
                    "internalType": "uint256",
                    "name": "loanAmount",
                    "type": "uint256"
                },
                {
                    "internalType": "uint256",
                    "name": "interestRate",
                    "type": "uint256"
                },
                {
                    "internalType": "uint256",
                    "name": "loanDuration",
                    "type": "uint256"
                },
                {
                    "internalType": "uint256",
                    "name": "loanStartTime",
                    "type": "uint256"
                },
                {
                    "internalType": "address",
                    "name": "borrower",
                    "type": "address"
                }
            ],
            "stateMutability": "view",
            "type": "function"
        },
        {
            "inputs": [
                {
                    "internalType": "uint256",
                    "name": "_proposalId",
                    "type": "uint256"
                }
            ],
            "name": "lend",
            "outputs": [],
            "stateMutability": "payable",
            "type": "function"
        },
        {
            "inputs": [],
            "name": "listingFee",
            "outputs": [
                {
                    "internalType": "uint256",
                    "name": "",
                    "type": "uint256"
                }
            ],
            "stateMutability": "view",
            "type": "function"
        },
        {
            "inputs": [],
            "name": "owner",
            "outputs": [
                {
                    "internalType": "address",
                    "name": "",
                    "type": "address"
                }
            ],
            "stateMutability": "view",
            "type": "function"
        },
        {
            "inputs": [],
            "name": "ownerWithdraw",
            "outputs": [],
            "stateMutability": "nonpayable",
            "type": "function"
        },
        {
            "inputs": [
                {
                    "internalType": "uint256",
                    "name": "_loanId",
                    "type": "uint256"
                }
            ],
            "name": "payoffDebt",
            "outputs": [],
            "stateMutability": "payable",
            "type": "function"
        },
        {
            "inputs": [
                {
                    "internalType": "uint256",
                    "name": "_loanAmount",
                    "type": "uint256"
                },
                {
                    "internalType": "uint256",
                    "name": "_interestRate",
                    "type": "uint256"
                },
                {
                    "internalType": "uint256",
                    "name": "_loanDuration",
                    "type": "uint256"
                }
            ],
            "name": "proposeLoan",
            "outputs": [],
            "stateMutability": "payable",
            "type": "function"
        },
        {
            "inputs": [
                {
                    "internalType": "uint256",
                    "name": "_loanId",
                    "type": "uint256"
                },
                {
                    "internalType": "uint256",
                    "name": "_price",
                    "type": "uint256"
                },
                {
                    "internalType": "uint256",
                    "name": "_percentage",
                    "type": "uint256"
                }
            ],
            "name": "proposeLoanFraction",
            "outputs": [],
            "stateMutability": "nonpayable",
            "type": "function"
        }
    ],
    "bytecode": "608060405234801561001057600080fd5b50604051611b8f380380611b8f83398101604081905261002f91610058565b600280546001600160a01b0319166001600160a01b039390931692909217909155600355610092565b6000806040838503121561006b57600080fd5b82516001600160a01b038116811461008257600080fd5b6020939093015192949293505050565b611aee806100a16000396000f3fe6080604052600436106100f35760003560e01c80636a1b7ecc1161008a578063cc92634211610059578063cc92634214610286578063d3dd525314610299578063fdcf3a0f14610337578063fe575a871461035757600080fd5b80636a1b7ecc14610203578063747de219146102195780638da5cb5b1461023b578063a6aa57ce1461027357600080fd5b806339ace9e6116100c657806339ace9e61461018d5780633a79021a146101a05780634311de8f146101c0578063486501c5146101d557600080fd5b80630c597807146100f857806310b295cd1461011a57806312c2292d1461015a5780632692b44b1461017a575b600080fd5b34801561010457600080fd5b50610118610113366004611731565b610397565b005b34801561012657600080fd5b5061013a610135366004611766565b610501565b6040516101519b9a99989796959493929190611813565b60405180910390f35b34801561016657600080fd5b506101186101753660046118dd565b61083c565b610118610188366004611907565b61092f565b61011861019b366004611766565b610a51565b3480156101ac57600080fd5b506101186101bb36600461193a565b610c83565b3480156101cc57600080fd5b50610118610dbc565b3480156101e157600080fd5b506101f56101f0366004611766565b610ea8565b604051908152602001610151565b34801561020f57600080fd5b506101f560035481565b34801561022557600080fd5b5061022e610efc565b6040516101519190611966565b34801561024757600080fd5b5060025461025b906001600160a01b031681565b6040516001600160a01b039091168152602001610151565b610118610281366004611766565b610f54565b61011861029436600461193a565b611047565b3480156102a557600080fd5b506102f96102b4366004611766565b6001602081905260009182526040909120805491810154600282015460038301546004840154600585015460069095015493949293919290916001600160a01b031687565b604080519788526020880196909652948601939093526060850191909152608084015260a08301526001600160a01b031660c082015260e001610151565b34801561034357600080fd5b50610118610352366004611766565b611121565b34801561036357600080fd5b50610387610372366004611980565b60046020526000908152604090205460ff1681565b6040519015158152602001610151565b6103a28383836111c7565b600083815260016020526040902060090154600211610485576000838152600160208181526040808420868552600a810183529084205487855291839052600901549092916103f0916119b1565b6000868152600160208181526040808420878552600a8101835290842085905592899052526009018054919250908061042b5761042b6119c4565b60008281526020808220600019908401810183905590920190925595815260018087526040808320948352600a909401909652918220828155948501829055506002840155505060030180546001600160a01b0319169055565b60008381526001602052604090206009018054806104a5576104a56119c4565b60008281526020808220830160001990810183905590920190925584825260018082526040808420868552600a01909252908220828155908101829055600281019190915560030180546001600160a01b03191690555b505050565b60008060008060008060006060806060806000600160008e815260200190815260200160002090506000816007018054905067ffffffffffffffff81111561054b5761054b6119da565b604051908082528060200260200182016040528015610574578160200160208202803683370190505b50905060005b60078301548110156105f7578260080160008460070183815481106105a1576105a16119f0565b60009182526020808320909101546001600160a01b0316835282019290925260400190205482518390839081106105da576105da6119f0565b6020908102919091010152806105ef81611a06565b91505061057a565b50600982015460009067ffffffffffffffff811115610618576106186119da565b60405190808252806020026020018201604052801561067d57816020015b61066a604051806080016040528060008152602001600081526020016000815260200160006001600160a01b031681525090565b8152602001906001900390816106365790505b50905060005b60098401548110156107305783600a0160008560090183815481106106aa576106aa6119f0565b600091825260208083209091015483528281019390935260409182019020815160808101835281548152600182015493810193909352600281015491830191909152600301546001600160a01b031660608201528251839083908110610712576107126119f0565b6020026020010181905250808061072890611a06565b915050610683565b50825460018401546002850154600386015460048701546005880154600689015460078a018054604080516020808402820181019092528281526001600160a01b03909416938c9260098f01928d929186918301828280156107bb57602002820191906000526020600020905b81546001600160a01b0316815260019091019060200180831161079d575b505050505093508180548060200260200160405190810160405280929190818152602001828054801561080d57602002820191906000526020600020905b8154815260200190600101908083116107f9575b505050505091509d509d509d509d509d509d509d509d509d509d509d5050505091939597999b90929496989a50565b6000818152600160205260409020600481015460059091015461085f9190611a1f565b4210156108c65760405162461bcd60e51b815260206004820152602a60248201527f626c61636b6c697374416464723a204c6f616e20686173206e6f7420646566616044820152693ab63a32b2103cb2ba1760b11b60648201526084015b60405180910390fd5b6108cf8161126c565b6001600160a01b038216600081815260046020908152604091829020805460ff19166001179055815192835282018390527f35cb901f95954817866fe7c7a12829f8b3e7c63d67e6fc9f329711ea871588e1910160405180910390a15050565b3360009081526004602052604090205460ff161561095f5760405162461bcd60e51b81526004016108bd90611a32565b6000818152600160208181526040808420868552600a0190915290912001543481146109d75760405162461bcd60e51b815260206004820152602160248201527f6275794c6f616e4672616374696f6e3a20496e636f727265637420616d6f756e6044820152601d60fa1b60648201526084016108bd565b6109e2828486610397565b6000828152600160209081526040808320868452600a018252918290206002015482518581523392810192909252918101829052606081018390527f865b7c3f63ed8fcd2f0eafe2a790ca574ef21cc29a84192fcb65cf4d134d79c89060800160405180910390a15050505050565b6000610a5c82610ea8565b60008381526001602081905260409091200154909150610abe5760405162461bcd60e51b815260206004820152601d60248201527f7061796f6666446562743a204e6f6e2d6578697374616e74206c6f616e00000060448201526064016108bd565b803414610b0d5760405162461bcd60e51b815260206004820152601c60248201527f7061796f6666446562743a20496e636f727265637420416d6f756e740000000060448201526064016108bd565b600082815260016020908152604080832060070180548251818502810185019093528083529192909190830182828015610b7057602002820191906000526020600020905b81546001600160a01b03168152600190910190602001808311610b52575b5050505050905060005b8151811015610c3a576000600160008681526020019081526020016000206008016000848481518110610baf57610baf6119f0565b60200260200101516001600160a01b03166001600160a01b031681526020019081526020016000205490506000612710826064610bec9190611a77565b610bf69087611a77565b610c009190611a96565b9050610c25848481518110610c1757610c176119f0565b602002602001015182611398565b50508080610c3290611a06565b915050610b7a565b50610c448361126c565b60408051848152602081018490527f75aec94f6ad949cfd9728eb818639f1b0b882089b480409ab73245c06469eef491015b60405180910390a1505050565b610c8c83611433565b15610cf35760405162461bcd60e51b815260206004820152603160248201527f70726f706f73654c6f616e4672616374696f6e3a20416c72656164792068617660448201527065206672616374696f6e616c2073616c6560781b60648201526084016108bd565b6000838152600160209081526040808320338452600801909152902054811115610d735760405162461bcd60e51b815260206004820152602b60248201527f73656c6c4c6f616e4672616374696f6e3a2043616e742073656c6c206d6f726560448201526a081d1a185b881bdddb995960aa1b60648201526084016108bd565b610d7e8383836114d0565b60408051848152602081018390529081018390527f9b8427fe5085272ee89f451d06a187007a86d8c42ada7a87516cb7067b47c68b90606001610c76565b6002546001600160a01b03163314610e165760405162461bcd60e51b815260206004820152601960248201527f6f776e657257697468647261773a204f6e6c79204f776e65720000000000000060448201526064016108bd565b6002546040516000916001600160a01b03169047908381818185875af1925050503d8060008114610e63576040519150601f19603f3d011682016040523d82523d6000602084013e610e68565b606091505b5050905080610ea55760405162461bcd60e51b8152602060048201526009602482015268151e0819985a5b195960ba1b60448201526064016108bd565b50565b6000818152600160205260408120600281015460039091015482612710610ed0836064611a77565b610eda9085611a77565b610ee49190611a96565b90506000610ef28285611a1f565b9695505050505050565b60606000805480602002602001604051908101604052809291908181526020018280548015610f4a57602002820191906000526020600020905b815481526020019060010190808311610f36575b5050505050905090565b3360009081526004602052604090205460ff1615610f845760405162461bcd60e51b81526004016108bd90611a32565b6000818152600160205260409020600201543414610fdd5760405162461bcd60e51b81526020600482015260166024820152751b195b990e88125b98dbdc9c9958dd08105b5bdd5b9d60521b60448201526064016108bd565b600081815260016020526040902060060154611002906001600160a01b031634611398565b61100b81611534565b604080518281523360208201527f9a9b103aecb698f4ff77369e96fd6809cbdc592cd590395fe1822ec46a06707891015b60405180910390a150565b3360009081526004602052604090205460ff16156110775760405162461bcd60e51b81526004016108bd90611a32565b60035434146110d25760405162461bcd60e51b815260206004820152602160248201527f70726f706f73654c6f616e3a204c697374696e672066656520726571756972656044820152601960fa1b60648201526084016108bd565b6110dd8383836115e1565b60408051848152602081018490529081018290523360608201527f0cd1913c8d469065f214b544289ba26d41f72f23bf15b6c42ace4805059481bd90608001610c76565b6000818152600160208190526040909120015461118e5760405162461bcd60e51b815260206004820152602560248201527f64656c69737450726f706f73616c3a204e6f6e2d6578697374616e742070726f6044820152641c1bdcd85b60da1b60648201526084016108bd565b6111978161126c565b6040518181527f05b34a103762fecb740de69f33d5d456d9d761539d5cd9fbb147af603e6d68049060200161103c565b6000838152600160208181526040808420868552600a81018352818520600201546007820180549586018155865283862090940180546001600160a01b031916331790556001600160a01b038616855260080190915282208054919283926112309084906119b1565b9091555050600084815260016020908152604080832033845260080190915281208054839290611261908490611a1f565b909155505050505050565b60008181526001602052604081205490546002116113825760008054611294906001906119b1565b815481106112a4576112a46119f0565b9060005260206000200154600082815481106112c2576112c26119f0565b9060005260206000200181905550600160008083815481106112e6576112e66119f0565b60009182526020808320909101548352820192909252604001812081815560018101829055600281018290556003810182905560048101829055600581018290556006810180546001600160a01b03191690559061134760078301826116e3565b6113556009830160006116e3565b50506000805480611368576113686119c4565b600190038181906000526020600020016000905590555050565b600160008083815481106112e6576112e66119f0565b6000826001600160a01b03168260405160006040518083038185875af1925050503d80600081146113e5576040519150601f19603f3d011682016040523d82523d6000602084013e6113ea565b606091505b50509050806104fc5760405162461bcd60e51b815260206004820152601560248201527417dcd95b99119d5b991cce88151e0811985a5b1959605a1b60448201526064016108bd565b600081815260016020526040812060090154815b818110156114c65760008481526001602052604081206009810180543393600a9093019291908590811061147d5761147d6119f0565b600091825260208083209091015483528201929092526040019020600301546001600160a01b0316036114b4575060019392505050565b806114be81611a06565b915050611447565b5060009392505050565b60006114dc838361168a565b60009485526001602081815260408088206009810180548086018255908a52838a208101869055948952600a019091529095209081559384019290925560028301555060030180546001600160a01b03191633179055565b600081815260016020819052604090912001546115935760405162461bcd60e51b815260206004820152601b60248201527f6c656e643a204e6f6e2d6578697374616e742070726f706f73616c000000000060448201526064016108bd565b60009081526001602081815260408084204260058201556007810180549485018155855282852090930180546001600160a01b03191633908117909155845260089092019052902060649055565b60006115ed848461168a565b600080548282526001602081905260409092208181559182018390556002820187905560039091018590559091506116288362015180611a77565b600083815260016020819052604082206004810193909355600690920180546001600160a01b031916331790558054918201815580527f290decd9548b62a8d60345a988386fc84ba6bc95484008f6362f93160ef3e563019190915550505050565b6040516bffffffffffffffffffffffff193360601b1660208201526034810183905260548101829052426074820152600090819060940160408051601f1981840301815291905280516020909101209150505b92915050565b5080546000825590600052602060002090810190610ea591905b8082111561171157600081556001016116fd565b5090565b80356001600160a01b038116811461172c57600080fd5b919050565b60008060006060848603121561174657600080fd5b833592506020840135915061175d60408501611715565b90509250925092565b60006020828403121561177857600080fd5b5035919050565b600081518084526020808501945080840160005b838110156117af57815187529582019590820190600101611793565b509495945050505050565b600081518084526020808501945080840160005b838110156117af578151805188528381015184890152604080820151908901526060908101516001600160a01b031690880152608090960195908201906001016117ce565b8b815260208082018c9052604082018b9052606082018a90526080820189905260a082018890526001600160a01b0387811660c084015261016060e08401819052875190840181905260009261018085019289820192855b8181101561188957845183168652948301949383019360010161186b565b50505050508281036101008401526118a1818761177f565b90508281036101208401526118b6818661177f565b90508281036101408401526118cb81856117ba565b9e9d5050505050505050505050505050565b600080604083850312156118f057600080fd5b6118f983611715565b946020939093013593505050565b60008060006060848603121561191c57600080fd5b61192584611715565b95602085013595506040909401359392505050565b60008060006060848603121561194f57600080fd5b505081359360208301359350604090920135919050565b602081526000611979602083018461177f565b9392505050565b60006020828403121561199257600080fd5b61197982611715565b634e487b7160e01b600052601160045260246000fd5b818103818111156116dd576116dd61199b565b634e487b7160e01b600052603160045260246000fd5b634e487b7160e01b600052604160045260246000fd5b634e487b7160e01b600052603260045260246000fd5b600060018201611a1857611a1861199b565b5060010190565b808201808211156116dd576116dd61199b565b60208082526025908201527f6973426c61636b6c69737465643a204163636f756e7420697320626c61636b6c6040820152641a5cdd195960da1b606082015260800190565b6000816000190483118215151615611a9157611a9161199b565b500290565b600082611ab357634e487b7160e01b600052601260045260246000fd5b50049056fea26469706673582212203a7656d3963faf47b63cf1db3344a73e24b82303072cc9106504e066bdbd10d364736f6c63430008100033",
    "sourcePath": "/home/forrest/Documents/loan_marketplace/contracts/LoanMarketplace.sol",
    "compiler": {
        "name": "solc",
        "version": "0.8.16+commit.07a7930e"
    },
    "functionHashes": {
        "blacklistAddr(address,uint256)": "12c2292d",
        "buyLoanFraction(address,uint256,uint256)": "2692b44b",
        "deleteFractSale(uint256,uint256,address)": "0c597807",
        "delistProposal(uint256)": "fdcf3a0f",
        "getMarketItemIds()": "747de219",
        "getMarketplaceItems(uint256)": "10b295cd",
        "getTotalDebt(uint256)": "486501c5",
        "isBlacklisted(address)": "fe575a87",
        "itemIdToItem(uint256)": "d3dd5253",
        "lend(uint256)": "a6aa57ce",
        "listingFee()": "6a1b7ecc",
        "owner()": "8da5cb5b",
        "ownerWithdraw()": "4311de8f",
        "payoffDebt(uint256)": "39ace9e6",
        "proposeLoan(uint256,uint256,uint256)": "cc926342",
        "proposeLoanFraction(uint256,uint256,uint256)": "3a79021a"
    },
    "gasEstimates": {
        "creation": {
            "codeDepositCost": "1378800",
            "executionCost": "infinite",
            "totalCost": "infinite"
        },
        "external": {
            "blacklistAddr(address,uint256)": "infinite",
            "buyLoanFraction(address,uint256,uint256)": "infinite",
            "deleteFractSale(uint256,uint256,address)": "infinite",
            "delistProposal(uint256)": "infinite",
            "getMarketItemIds()": "infinite",
            "getMarketplaceItems(uint256)": "infinite",
            "getTotalDebt(uint256)": "infinite",
            "isBlacklisted(address)": "2619",
            "itemIdToItem(uint256)": "15331",
            "lend(uint256)": "infinite",
            "listingFee()": "2318",
            "owner()": "2404",
            "ownerWithdraw()": "infinite",
            "payoffDebt(uint256)": "infinite",
            "proposeLoan(uint256,uint256,uint256)": "190318",
            "proposeLoanFraction(uint256,uint256,uint256)": "infinite"
        },
        "internal": {
            "_hasFractionalSale(uint256)": "infinite",
            "_sendFunds(address,uint256)": "infinite"
        }
    }
}